{
  "_format": "hh-sol-artifact-1",
  "contractName": "NftMarketplace",
  "sourceName": "contracts/NftMarketplace.sol",
  "abi": [
    {
      "inputs": [
        {
          "internalType": "address",
          "name": "_nftContractAddress",
          "type": "address"
        }
      ],
      "stateMutability": "nonpayable",
      "type": "constructor"
    },
    {
      "inputs": [
        {
          "internalType": "address",
          "name": "user",
          "type": "address"
        }
      ],
      "name": "getListByUser",
      "outputs": [
        {
          "internalType": "uint256[]",
          "name": "",
          "type": "uint256[]"
        }
      ],
      "stateMutability": "view",
      "type": "function"
    }
  ],
  "bytecode": "0x608060405234801561001057600080fd5b506040516106f83803806106f88339818101604052810190610032919061014a565b600073ffffffffffffffffffffffffffffffffffffffff168173ffffffffffffffffffffffffffffffffffffffff16036100a1576040517f08c379a0000000000000000000000000000000000000000000000000000000008152600401610098906101d4565b60405180910390fd5b806000806101000a81548173ffffffffffffffffffffffffffffffffffffffff021916908373ffffffffffffffffffffffffffffffffffffffff160217905550506101f4565b600080fd5b600073ffffffffffffffffffffffffffffffffffffffff82169050919050565b6000610117826100ec565b9050919050565b6101278161010c565b811461013257600080fd5b50565b6000815190506101448161011e565b92915050565b6000602082840312156101605761015f6100e7565b5b600061016e84828501610135565b91505092915050565b600082825260208201905092915050565b7f496e76616c6964204e465420636f6e7472616374206164647265737300000000600082015250565b60006101be601c83610177565b91506101c982610188565b602082019050919050565b600060208201905081810360008301526101ed816101b1565b9050919050565b6104f5806102036000396000f3fe608060405234801561001057600080fd5b506004361061002b5760003560e01c8063db8e93fa14610030575b600080fd5b61004a6004803603810190610045919061028f565b610060565b6040516100579190610384565b60405180910390f35b606060008060009054906101000a900473ffffffffffffffffffffffffffffffffffffffff1673ffffffffffffffffffffffffffffffffffffffff166370a08231846040518263ffffffff1660e01b81526004016100be91906103b5565b602060405180830381865afa1580156100db573d6000803e3d6000fd5b505050506040513d601f19601f820116820180604052508101906100ff91906103fc565b905060008167ffffffffffffffff81111561011d5761011c610429565b5b60405190808252806020026020018201604052801561014b5781602001602082028036833780820191505090505b50905060005b828110156102215760008054906101000a900473ffffffffffffffffffffffffffffffffffffffff1673ffffffffffffffffffffffffffffffffffffffff16632f745c5986836040518363ffffffff1660e01b81526004016101b4929190610467565b602060405180830381865afa1580156101d1573d6000803e3d6000fd5b505050506040513d601f19601f820116820180604052508101906101f591906103fc565b82828151811061020857610207610490565b5b6020026020010181815250508080600101915050610151565b508092505050919050565b600080fd5b600073ffffffffffffffffffffffffffffffffffffffff82169050919050565b600061025c82610231565b9050919050565b61026c81610251565b811461027757600080fd5b50565b60008135905061028981610263565b92915050565b6000602082840312156102a5576102a461022c565b5b60006102b38482850161027a565b91505092915050565b600081519050919050565b600082825260208201905092915050565b6000819050602082019050919050565b6000819050919050565b6102fb816102e8565b82525050565b600061030d83836102f2565b60208301905092915050565b6000602082019050919050565b6000610331826102bc565b61033b81856102c7565b9350610346836102d8565b8060005b8381101561037757815161035e8882610301565b975061036983610319565b92505060018101905061034a565b5085935050505092915050565b6000602082019050818103600083015261039e8184610326565b905092915050565b6103af81610251565b82525050565b60006020820190506103ca60008301846103a6565b92915050565b6103d9816102e8565b81146103e457600080fd5b50565b6000815190506103f6816103d0565b92915050565b6000602082840312156104125761041161022c565b5b6000610420848285016103e7565b91505092915050565b7f4e487b7100000000000000000000000000000000000000000000000000000000600052604160045260246000fd5b610461816102e8565b82525050565b600060408201905061047c60008301856103a6565b6104896020830184610458565b9392505050565b7f4e487b7100000000000000000000000000000000000000000000000000000000600052603260045260246000fdfea2646970667358221220ac37e02d06cd4b51150795ee7b523fb05548929b228ceef29113702032a1884064736f6c634300081b0033",
  "linkReferences": {},
  "deployedLinkReferences": {}
}